{
  "_format": "hh-sol-artifact-1",
  "contractName": "AssetDAO",
  "sourceName": "contracts/AssetDAO.sol",
  "abi": [
    {
      "inputs": [
        {
          "internalType": "address",
          "name": "_tokenAddress",
          "type": "address"
        }
      ],
      "stateMutability": "nonpayable",
      "type": "constructor"
    },
    {
      "inputs": [
        {
          "internalType": "string",
          "name": "_description",
          "type": "string"
        }
      ],
      "name": "createProposal",
      "outputs": [],
      "stateMutability": "nonpayable",
      "type": "function"
    },
    {
      "inputs": [],
      "name": "governanceToken",
      "outputs": [
        {
          "internalType": "contract IERC20",
          "name": "",
          "type": "address"
        }
      ],
      "stateMutability": "view",
      "type": "function"
    },
    {
      "inputs": [
        {
          "internalType": "uint256",
          "name": "",
          "type": "uint256"
        },
        {
          "internalType": "address",
          "name": "",
          "type": "address"
        }
      ],
      "name": "hasVoted",
      "outputs": [
        {
          "internalType": "bool",
          "name": "",
          "type": "bool"
        }
      ],
      "stateMutability": "view",
      "type": "function"
    },
    {
      "inputs": [],
      "name": "proposalCount",
      "outputs": [
        {
          "internalType": "uint256",
          "name": "",
          "type": "uint256"
        }
      ],
      "stateMutability": "view",
      "type": "function"
    },
    {
      "inputs": [
        {
          "internalType": "uint256",
          "name": "",
          "type": "uint256"
        }
      ],
      "name": "proposals",
      "outputs": [
        {
          "internalType": "string",
          "name": "description",
          "type": "string"
        },
        {
          "internalType": "uint256",
          "name": "forVotes",
          "type": "uint256"
        },
        {
          "internalType": "bool",
          "name": "executed",
          "type": "bool"
        }
      ],
      "stateMutability": "view",
      "type": "function"
    },
    {
      "inputs": [
        {
          "internalType": "uint256",
          "name": "_proposalId",
          "type": "uint256"
        }
      ],
      "name": "vote",
      "outputs": [],
      "stateMutability": "nonpayable",
      "type": "function"
    }
  ],
  "bytecode": "0x608060405234801561001057600080fd5b50604051610f72380380610f72833981810160405281019061003291906100db565b806000806101000a81548173ffffffffffffffffffffffffffffffffffffffff021916908373ffffffffffffffffffffffffffffffffffffffff16021790555050610108565b600080fd5b600073ffffffffffffffffffffffffffffffffffffffff82169050919050565b60006100a88261007d565b9050919050565b6100b88161009d565b81146100c357600080fd5b50565b6000815190506100d5816100af565b92915050565b6000602082840312156100f1576100f0610078565b5b60006100ff848285016100c6565b91505092915050565b610e5b806101176000396000f3fe608060405234801561001057600080fd5b50600436106100625760003560e01c80630121b93f14610067578063013cf08b1461008357806343859632146100b557806349c2a1a6146100e5578063da35c66414610101578063f96dae0a1461011f575b600080fd5b610081600480360381019061007c919061054b565b61013d565b005b61009d6004803603810190610098919061054b565b610357565b6040516100ac93929190610632565b60405180910390f35b6100cf60048036038101906100ca91906106ce565b610416565b6040516100dc919061070e565b60405180910390f35b6100ff60048036038101906100fa919061085e565b610445565b005b6101096104d7565b60405161011691906108a7565b60405180910390f35b6101276104dd565b6040516101349190610921565b60405180910390f35b6002600082815260200190815260200160002060003373ffffffffffffffffffffffffffffffffffffffff1673ffffffffffffffffffffffffffffffffffffffff16815260200190815260200160002060009054906101000a900460ff16156101db576040517f08c379a00000000000000000000000000000000000000000000000000000000081526004016101d290610988565b60405180910390fd5b60008060009054906101000a900473ffffffffffffffffffffffffffffffffffffffff1673ffffffffffffffffffffffffffffffffffffffff166370a08231336040518263ffffffff1660e01b815260040161023791906109b7565b602060405180830381865afa158015610254573d6000803e3d6000fd5b505050506040513d601f19601f8201168201806040525081019061027891906109e7565b9050600081116102bd576040517f08c379a00000000000000000000000000000000000000000000000000000000081526004016102b490610a86565b60405180910390fd5b806001600084815260200190815260200160002060010160008282546102e39190610ad5565b9250508190555060016002600084815260200190815260200160002060003373ffffffffffffffffffffffffffffffffffffffff1673ffffffffffffffffffffffffffffffffffffffff16815260200190815260200160002060006101000a81548160ff0219169083151502179055505050565b600160205280600052604060002060009150905080600001805461037a90610b38565b80601f01602080910402602001604051908101604052809291908181526020018280546103a690610b38565b80156103f35780601f106103c8576101008083540402835291602001916103f3565b820191906000526020600020905b8154815290600101906020018083116103d657829003601f168201915b5050505050908060010154908060020160009054906101000a900460ff16905083565b60026020528160005260406000206020528060005260406000206000915091509054906101000a900460ff1681565b6003600081548092919061045890610b69565b91905055506040518060600160405280828152602001600081526020016000151581525060016000600354815260200190815260200160002060008201518160000190816104a69190610d53565b506020820151816001015560408201518160020160006101000a81548160ff02191690831515021790555090505050565b60035481565b60008054906101000a900473ffffffffffffffffffffffffffffffffffffffff1681565b6000604051905090565b600080fd5b600080fd5b6000819050919050565b61052881610515565b811461053357600080fd5b50565b6000813590506105458161051f565b92915050565b6000602082840312156105615761056061050b565b5b600061056f84828501610536565b91505092915050565b600081519050919050565b600082825260208201905092915050565b60005b838110156105b2578082015181840152602081019050610597565b60008484015250505050565b6000601f19601f8301169050919050565b60006105da82610578565b6105e48185610583565b93506105f4818560208601610594565b6105fd816105be565b840191505092915050565b61061181610515565b82525050565b60008115159050919050565b61062c81610617565b82525050565b6000606082019050818103600083015261064c81866105cf565b905061065b6020830185610608565b6106686040830184610623565b949350505050565b600073ffffffffffffffffffffffffffffffffffffffff82169050919050565b600061069b82610670565b9050919050565b6106ab81610690565b81146106b657600080fd5b50565b6000813590506106c8816106a2565b92915050565b600080604083850312156106e5576106e461050b565b5b60006106f385828601610536565b9250506020610704858286016106b9565b9150509250929050565b60006020820190506107236000830184610623565b92915050565b600080fd5b600080fd5b7f4e487b7100000000000000000000000000000000000000000000000000000000600052604160045260246000fd5b61076b826105be565b810181811067ffffffffffffffff8211171561078a57610789610733565b5b80604052505050565b600061079d610501565b90506107a98282610762565b919050565b600067ffffffffffffffff8211156107c9576107c8610733565b5b6107d2826105be565b9050602081019050919050565b82818337600083830152505050565b60006108016107fc846107ae565b610793565b90508281526020810184848401111561081d5761081c61072e565b5b6108288482856107df565b509392505050565b600082601f83011261084557610844610729565b5b81356108558482602086016107ee565b91505092915050565b6000602082840312156108745761087361050b565b5b600082013567ffffffffffffffff81111561089257610891610510565b5b61089e84828501610830565b91505092915050565b60006020820190506108bc6000830184610608565b92915050565b6000819050919050565b60006108e76108e26108dd84610670565b6108c2565b610670565b9050919050565b60006108f9826108cc565b9050919050565b600061090b826108ee565b9050919050565b61091b81610900565b82525050565b60006020820190506109366000830184610912565b92915050565b7f416170207065686c6520766f7465206465206368756b65206861696e00000000600082015250565b6000610972601c83610583565b915061097d8261093c565b602082019050919050565b600060208201905081810360008301526109a181610965565b9050919050565b6109b181610690565b82525050565b60006020820190506109cc60008301846109a8565b92915050565b6000815190506109e18161051f565b92915050565b6000602082840312156109fd576109fc61050b565b5b6000610a0b848285016109d2565b91505092915050565b7f566f74652064656e65206b65206c69796520746f6b656e7320686f6e61206c6160008201527f7a6d69206861696e000000000000000000000000000000000000000000000000602082015250565b6000610a70602883610583565b9150610a7b82610a14565b604082019050919050565b60006020820190508181036000830152610a9f81610a63565b9050919050565b7f4e487b7100000000000000000000000000000000000000000000000000000000600052601160045260246000fd5b6000610ae082610515565b9150610aeb83610515565b9250828201905080821115610b0357610b02610aa6565b5b92915050565b7f4e487b7100000000000000000000000000000000000000000000000000000000600052602260045260246000fd5b60006002820490506001821680610b5057607f821691505b602082108103610b6357610b62610b09565b5b50919050565b6000610b7482610515565b91507fffffffffffffffffffffffffffffffffffffffffffffffffffffffffffffffff8203610ba657610ba5610aa6565b5b600182019050919050565b60008190508160005260206000209050919050565b60006020601f8301049050919050565b600082821b905092915050565b600060088302610c137fffffffffffffffffffffffffffffffffffffffffffffffffffffffffffffffff82610bd6565b610c1d8683610bd6565b95508019841693508086168417925050509392505050565b6000610c50610c4b610c4684610515565b6108c2565b610515565b9050919050565b6000819050919050565b610c6a83610c35565b610c7e610c7682610c57565b848454610be3565b825550505050565b600090565b610c93610c86565b610c9e818484610c61565b505050565b5b81811015610cc257610cb7600082610c8b565b600181019050610ca4565b5050565b601f821115610d0757610cd881610bb1565b610ce184610bc6565b81016020851015610cf0578190505b610d04610cfc85610bc6565b830182610ca3565b50505b505050565b600082821c905092915050565b6000610d2a60001984600802610d0c565b1980831691505092915050565b6000610d438383610d19565b9150826002028217905092915050565b610d5c82610578565b67ffffffffffffffff811115610d7557610d74610733565b5b610d7f8254610b38565b610d8a828285610cc6565b600060209050601f831160018114610dbd5760008415610dab578287015190505b610db58582610d37565b865550610e1d565b601f198416610dcb86610bb1565b60005b82811015610df357848901518255600182019150602085019450602081019050610dce565b86831015610e105784890151610e0c601f891682610d19565b8355505b6001600288020188555050505b50505050505056fea2646970667358221220d7f85e4fc207c47f29e9c54d62c194a6a80ff8f0497743360eb67a352571ccae64736f6c634300081c0033",
  "linkReferences": {},
  "deployedLinkReferences": {}
}