{
  "_format": "hh-sol-artifact-1",
  "contractName": "AssetRegistry",
  "sourceName": "contracts/AssetRegistry.sol",
  "abi": [
    {
      "anonymous": false,
      "inputs": [
        {
          "indexed": true,
          "internalType": "uint256",
          "name": "id",
          "type": "uint256"
        },
        {
          "indexed": true,
          "internalType": "address",
          "name": "owner",
          "type": "address"
        },
        {
          "indexed": false,
          "internalType": "string",
          "name": "title",
          "type": "string"
        }
      ],
      "name": "AssetRegistered",
      "type": "event"
    },
    {
      "inputs": [
        {
          "internalType": "uint256",
          "name": "",
          "type": "uint256"
        }
      ],
      "name": "assets",
      "outputs": [
        {
          "internalType": "uint256",
          "name": "id",
          "type": "uint256"
        },
        {
          "internalType": "address",
          "name": "owner",
          "type": "address"
        },
        {
          "internalType": "string",
          "name": "title",
          "type": "string"
        },
        {
          "internalType": "string",
          "name": "legalDocHash",
          "type": "string"
        },
        {
          "internalType": "uint256",
          "name": "value",
          "type": "uint256"
        },
        {
          "internalType": "bool",
          "name": "isVerified",
          "type": "bool"
        }
      ],
      "stateMutability": "view",
      "type": "function"
    },
    {
      "inputs": [],
      "name": "nextAssetId",
      "outputs": [
        {
          "internalType": "uint256",
          "name": "",
          "type": "uint256"
        }
      ],
      "stateMutability": "view",
      "type": "function"
    },
    {
      "inputs": [
        {
          "internalType": "string",
          "name": "_title",
          "type": "string"
        },
        {
          "internalType": "string",
          "name": "_docHash",
          "type": "string"
        },
        {
          "internalType": "uint256",
          "name": "_value",
          "type": "uint256"
        }
      ],
      "name": "registerAsset",
      "outputs": [],
      "stateMutability": "nonpayable",
      "type": "function"
    }
  ],
  "bytecode": "0x6080604052348015600f57600080fd5b50610b108061001f6000396000f3fe608060405234801561001057600080fd5b50600436106100415760003560e01c8063463c7d6f146100465780638ed9131814610062578063cf35bdd014610080575b600080fd5b610060600480360381019061005b9190610537565b6100b5565b005b61006a610228565b60405161007791906105d1565b60405180910390f35b61009a600480360381019061009591906105ec565b61022e565b6040516100ac969594939291906106f4565b60405180910390f35b6040518060c0016040528060005481526020013373ffffffffffffffffffffffffffffffffffffffff1681526020018481526020018381526020018281526020016000151581525060016000805481526020019081526020016000206000820151816000015560208201518160010160006101000a81548173ffffffffffffffffffffffffffffffffffffffff021916908373ffffffffffffffffffffffffffffffffffffffff1602179055506040820151816002019081610177919061096f565b50606082015181600301908161018d919061096f565b506080820151816004015560a08201518160050160006101000a81548160ff0219169083151502179055509050503373ffffffffffffffffffffffffffffffffffffffff166000547f522902797ecf25adb7fe6834ed0d749090896244923f1c3e0b7ca938687ea08f856040516102049190610a41565b60405180910390a360008081548092919061021e90610a92565b9190505550505050565b60005481565b60016020528060005260406000206000915090508060000154908060010160009054906101000a900473ffffffffffffffffffffffffffffffffffffffff169080600201805461027d90610792565b80601f01602080910402602001604051908101604052809291908181526020018280546102a990610792565b80156102f65780601f106102cb576101008083540402835291602001916102f6565b820191906000526020600020905b8154815290600101906020018083116102d957829003601f168201915b50505050509080600301805461030b90610792565b80601f016020809104026020016040519081016040528092919081815260200182805461033790610792565b80156103845780601f1061035957610100808354040283529160200191610384565b820191906000526020600020905b81548152906001019060200180831161036757829003601f168201915b5050505050908060040154908060050160009054906101000a900460ff16905086565b6000604051905090565b600080fd5b600080fd5b600080fd5b600080fd5b6000601f19601f8301169050919050565b7f4e487b7100000000000000000000000000000000000000000000000000000000600052604160045260246000fd5b61040e826103c5565b810181811067ffffffffffffffff8211171561042d5761042c6103d6565b5b80604052505050565b60006104406103a7565b905061044c8282610405565b919050565b600067ffffffffffffffff82111561046c5761046b6103d6565b5b610475826103c5565b9050602081019050919050565b82818337600083830152505050565b60006104a461049f84610451565b610436565b9050828152602081018484840111156104c0576104bf6103c0565b5b6104cb848285610482565b509392505050565b600082601f8301126104e8576104e76103bb565b5b81356104f8848260208601610491565b91505092915050565b6000819050919050565b61051481610501565b811461051f57600080fd5b50565b6000813590506105318161050b565b92915050565b6000806000606084860312156105505761054f6103b1565b5b600084013567ffffffffffffffff81111561056e5761056d6103b6565b5b61057a868287016104d3565b935050602084013567ffffffffffffffff81111561059b5761059a6103b6565b5b6105a7868287016104d3565b92505060406105b886828701610522565b9150509250925092565b6105cb81610501565b82525050565b60006020820190506105e660008301846105c2565b92915050565b600060208284031215610602576106016103b1565b5b600061061084828501610522565b91505092915050565b600073ffffffffffffffffffffffffffffffffffffffff82169050919050565b600061064482610619565b9050919050565b61065481610639565b82525050565b600081519050919050565b600082825260208201905092915050565b60005b83811015610694578082015181840152602081019050610679565b60008484015250505050565b60006106ab8261065a565b6106b58185610665565b93506106c5818560208601610676565b6106ce816103c5565b840191505092915050565b60008115159050919050565b6106ee816106d9565b82525050565b600060c08201905061070960008301896105c2565b610716602083018861064b565b818103604083015261072881876106a0565b9050818103606083015261073c81866106a0565b905061074b60808301856105c2565b61075860a08301846106e5565b979650505050505050565b7f4e487b7100000000000000000000000000000000000000000000000000000000600052602260045260246000fd5b600060028204905060018216806107aa57607f821691505b6020821081036107bd576107bc610763565b5b50919050565b60008190508160005260206000209050919050565b60006020601f8301049050919050565b600082821b905092915050565b6000600883026108257fffffffffffffffffffffffffffffffffffffffffffffffffffffffffffffffff826107e8565b61082f86836107e8565b95508019841693508086168417925050509392505050565b6000819050919050565b600061086c61086761086284610501565b610847565b610501565b9050919050565b6000819050919050565b61088683610851565b61089a61089282610873565b8484546107f5565b825550505050565b600090565b6108af6108a2565b6108ba81848461087d565b505050565b5b818110156108de576108d36000826108a7565b6001810190506108c0565b5050565b601f821115610923576108f4816107c3565b6108fd846107d8565b8101602085101561090c578190505b610920610918856107d8565b8301826108bf565b50505b505050565b600082821c905092915050565b600061094660001984600802610928565b1980831691505092915050565b600061095f8383610935565b9150826002028217905092915050565b6109788261065a565b67ffffffffffffffff811115610991576109906103d6565b5b61099b8254610792565b6109a68282856108e2565b600060209050601f8311600181146109d957600084156109c7578287015190505b6109d18582610953565b865550610a39565b601f1984166109e7866107c3565b60005b82811015610a0f578489015182556001820191506020850194506020810190506109ea565b86831015610a2c5784890151610a28601f891682610935565b8355505b6001600288020188555050505b505050505050565b60006020820190508181036000830152610a5b81846106a0565b905092915050565b7f4e487b7100000000000000000000000000000000000000000000000000000000600052601160045260246000fd5b6000610a9d82610501565b91507fffffffffffffffffffffffffffffffffffffffffffffffffffffffffffffffff8203610acf57610ace610a63565b5b60018201905091905056fea264697066735822122039e299b2e3b97cbe1ff8d6ff312b87c8cb87351cdef1976eee894d970e296afc64736f6c634300081c0033",
  "linkReferences": {},
  "deployedLinkReferences": {}
}